{
  "contractName": "FlightSuretyData",
  "abi": [
    {
      "inputs": [],
      "payable": false,
      "stateMutability": "nonpayable",
      "type": "constructor"
    },
    {
      "constant": false,
      "inputs": [
        {
          "name": "airline",
          "type": "address"
        }
      ],
      "name": "isFunded",
      "outputs": [
        {
          "name": "",
          "type": "bool"
        }
      ],
      "payable": false,
      "stateMutability": "nonpayable",
      "type": "function"
    },
    {
      "constant": true,
      "inputs": [],
      "name": "isOperational",
      "outputs": [
        {
          "name": "",
          "type": "bool"
        }
      ],
      "payable": false,
      "stateMutability": "view",
      "type": "function"
    },
    {
      "constant": false,
      "inputs": [
        {
          "name": "mode",
          "type": "bool"
        }
      ],
      "name": "setOperatingStatus",
      "outputs": [],
      "payable": false,
      "stateMutability": "nonpayable",
      "type": "function"
    },
    {
      "constant": false,
      "inputs": [],
      "name": "registerFlight",
      "outputs": [
        {
          "name": "flightNo",
          "type": "uint256"
        }
      ],
      "payable": false,
      "stateMutability": "nonpayable",
      "type": "function"
    },
    {
      "constant": false,
      "inputs": [
        {
          "name": "firstAirline",
          "type": "address"
        }
      ],
      "name": "registerFirstAirline",
      "outputs": [],
      "payable": false,
      "stateMutability": "nonpayable",
      "type": "function"
    },
    {
      "constant": false,
      "inputs": [
        {
          "name": "airline",
          "type": "address"
        },
        {
          "name": "isAdmin",
          "type": "bool"
        },
        {
          "name": "metamask",
          "type": "address"
        }
      ],
      "name": "registerAirline",
      "outputs": [],
      "payable": false,
      "stateMutability": "nonpayable",
      "type": "function"
    },
    {
      "constant": false,
      "inputs": [
        {
          "name": "amount",
          "type": "uint256"
        },
        {
          "name": "passenger",
          "type": "address"
        }
      ],
      "name": "buy",
      "outputs": [],
      "payable": true,
      "stateMutability": "payable",
      "type": "function"
    },
    {
      "constant": false,
      "inputs": [
        {
          "name": "passenger",
          "type": "address"
        }
      ],
      "name": "creditInsurees",
      "outputs": [],
      "payable": false,
      "stateMutability": "nonpayable",
      "type": "function"
    },
    {
      "constant": false,
      "inputs": [
        {
          "name": "passenger",
          "type": "address"
        },
        {
          "name": "amount",
          "type": "uint256"
        }
      ],
      "name": "pay",
      "outputs": [],
      "payable": true,
      "stateMutability": "payable",
      "type": "function"
    },
    {
      "constant": false,
      "inputs": [
        {
          "name": "_address",
          "type": "address"
        }
      ],
      "name": "fund",
      "outputs": [],
      "payable": true,
      "stateMutability": "payable",
      "type": "function"
    }
  ],
  "bytecode": "0x60806040526001600060146101000a81548160ff0219169083151502179055506000604051908082528060200260200182016040528015620000505781602001602082028038833980820191505090505b506001908051906020019062000068929190620000bd565b503480156200007657600080fd5b50336000806101000a81548173ffffffffffffffffffffffffffffffffffffffff021916908373ffffffffffffffffffffffffffffffffffffffff16021790555062000192565b82805482825590600052602060002090810192821562000139579160200282015b82811115620001385782518260006101000a81548173ffffffffffffffffffffffffffffffffffffffff021916908373ffffffffffffffffffffffffffffffffffffffff16021790555091602001919060010190620000de565b5b5090506200014891906200014c565b5090565b6200018f91905b808211156200018b57600081816101000a81549073ffffffffffffffffffffffffffffffffffffffff02191690555060010162000153565b5090565b90565b61181d80620001a26000396000f3006080604052600436106100a4576000357c0100000000000000000000000000000000000000000000000000000000900463ffffffff168063110466ed146100a957806323024408146100d85780634a830a921461010e5780635689b249146101515780637d2ab0de146101ac5780637deb6025146101ef57806380232e451461022f578063ae6f17e01461029e578063c4076876146102c9578063cd905dff14610309575b600080fd5b3480156100b557600080fd5b506100d6600480360381019080803515159060200190929190505050610338565b005b61010c600480360381019080803573ffffffffffffffffffffffffffffffffffffffff169060200190929190505050610610565b005b34801561011a57600080fd5b5061014f600480360381019080803573ffffffffffffffffffffffffffffffffffffffff1690602001909291905050506108cb565b005b34801561015d57600080fd5b50610192600480360381019080803573ffffffffffffffffffffffffffffffffffffffff169060200190929190505050610afb565b604051808215151515815260200191505060405180910390f35b3480156101b857600080fd5b506101ed600480360381019080803573ffffffffffffffffffffffffffffffffffffffff169060200190929190505050610b54565b005b61022d60048036038101908080359060200190929190803573ffffffffffffffffffffffffffffffffffffffff169060200190929190505050610c92565b005b34801561023b57600080fd5b5061029c600480360381019080803573ffffffffffffffffffffffffffffffffffffffff169060200190929190803515159060200190929190803573ffffffffffffffffffffffffffffffffffffffff169060200190929190505050610f2d565b005b3480156102aa57600080fd5b506102b361147c565b6040518082815260200191505060405180910390f35b610307600480360381019080803573ffffffffffffffffffffffffffffffffffffffff16906020019092919080359060200190929190505050611507565b005b34801561031557600080fd5b5061031e6116a7565b604051808215151515815260200191505060405180910390f35b600080600360003373ffffffffffffffffffffffffffffffffffffffff1673ffffffffffffffffffffffffffffffffffffffff16815260200190815260200160002060000160009054906101000a900460ff1615156103ff576040517f08c379a00000000000000000000000000000000000000000000000000000000081526004018080602001828103825260138152602001807f43616c6c6572206973206e6f742041646d696e0000000000000000000000000081525060200191505060405180910390fd5b60009150600090505b600180549050811015610498573373ffffffffffffffffffffffffffffffffffffffff1660018281548110151561043b57fe5b9060005260206000200160009054906101000a900473ffffffffffffffffffffffffffffffffffffffff1673ffffffffffffffffffffffffffffffffffffffff16141561048b5760019150610498565b8080600101915050610408565b81151515610534576040517f08c379a00000000000000000000000000000000000000000000000000000000081526004018080602001828103825260288152602001807f43616c6c65722068617320616c72656164792063616c6c65642074686973206681526020017f756e6374696f6e2e00000000000000000000000000000000000000000000000081525060400191505060405180910390fd5b60013390806001815401808255809150509060018203906000526020600020016000909192909190916101000a81548173ffffffffffffffffffffffffffffffffffffffff021916908373ffffffffffffffffffffffffffffffffffffffff16021790555050600460018054905010151561060b5782600060146101000a81548160ff02191690831515021790555060006040519080825280602002602001820160405280156105f35781602001602082028038833980820191505090505b5060019080519060200190610609929190611724565b505b505050565b600060011515600360008473ffffffffffffffffffffffffffffffffffffffff1673ffffffffffffffffffffffffffffffffffffffff16815260200190815260200160002060000160159054906101000a900460ff1615151415156106dd576040517f08c379a00000000000000000000000000000000000000000000000000000000081526004018080602001828103825260178152602001807f4169726c696e65206e6f7420526567697374657265642e00000000000000000081525060200191505060405180910390fd5b60001515600360008473ffffffffffffffffffffffffffffffffffffffff1673ffffffffffffffffffffffffffffffffffffffff16815260200190815260200160002060000160169054906101000a900460ff1615151415156107a8576040517f08c379a00000000000000000000000000000000000000000000000000000000081526004018080602001828103825260188152602001807f4169726c696e6520686173206265656e2066756e6465642e000000000000000081525060200191505060405180910390fd5b678ac7230489e80000340390506000809054906101000a900473ffffffffffffffffffffffffffffffffffffffff1673ffffffffffffffffffffffffffffffffffffffff166108fc678ac7230489e800009081150290604051600060405180830381858888f19350505050158015610824573d6000803e3d6000fd5b508173ffffffffffffffffffffffffffffffffffffffff166108fc829081150290604051600060405180830381858888f1935050505015801561086b573d6000803e3d6000fd5b506001600360008473ffffffffffffffffffffffffffffffffffffffff1673ffffffffffffffffffffffffffffffffffffffff16815260200190815260200160002060000160166101000a81548160ff0219169083151502179055505050565b60006002600080815260200190815260200160002060010160009054906101000a900460ff1660ff16141580156109295750600a6002600080815260200190815260200160002060010160009054906101000a900460ff1660ff1614155b151561099d576040517f08c379a00000000000000000000000000000000000000000000000000000000081526004018080602001828103825260198152602001807f54686520666c69676874206973206e6f742064656c617965640000000000000081525060200191505060405180910390fd5b60011515600460008373ffffffffffffffffffffffffffffffffffffffff1673ffffffffffffffffffffffffffffffffffffffff16815260200190815260200160002060000160009054906101000a900460ff161515141515610a8e576040517f08c379a00000000000000000000000000000000000000000000000000000000081526004018080602001828103825260218152602001807f50617373656e67657220686173206e6f74207061696420696e737572616e636581526020017f200000000000000000000000000000000000000000000000000000000000000081525060400191505060405180910390fd5b610af7610aa6600560016116bd90919063ffffffff16565b600460008473ffffffffffffffffffffffffffffffffffffffff1673ffffffffffffffffffffffffffffffffffffffff168152602001908152602001600020600101546116d390919063ffffffff16565b5050565b6000600360008373ffffffffffffffffffffffffffffffffffffffff1673ffffffffffffffffffffffffffffffffffffffff16815260200190815260200160002060000160169054906101000a900460ff169050919050565b60a0604051908101604052806001151581526020018273ffffffffffffffffffffffffffffffffffffffff1681526020016001151581526020016000151581526020016001815250600360008373ffffffffffffffffffffffffffffffffffffffff1673ffffffffffffffffffffffffffffffffffffffff16815260200190815260200160002060008201518160000160006101000a81548160ff02191690831515021790555060208201518160000160016101000a81548173ffffffffffffffffffffffffffffffffffffffff021916908373ffffffffffffffffffffffffffffffffffffffff16021790555060408201518160000160156101000a81548160ff02191690831515021790555060608201518160000160166101000a81548160ff0219169083151502179055506080820151816001015590505050565b60001515600460008373ffffffffffffffffffffffffffffffffffffffff1673ffffffffffffffffffffffffffffffffffffffff16815260200190815260200160002060000160009054906101000a900460ff161515141515610d5d576040517f08c379a000000000000000000000000000000000000000000000000000000000815260040180806020018281038252601d8152602001807f50617373656e67657220686173207061696420696e737572616e63652000000081525060200191505060405180910390fd5b633b9aca008210151515610dd9576040517f08c379a00000000000000000000000000000000000000000000000000000000081526004018080602001828103825260108152602001807f4e6f7420656e6f7567682065746865720000000000000000000000000000000081525060200191505060405180910390fd5b6000809054906101000a900473ffffffffffffffffffffffffffffffffffffffff1673ffffffffffffffffffffffffffffffffffffffff166108fc839081150290604051600060405180830381858888f19350505050158015610e40573d6000803e3d6000fd5b506060604051908101604052806001151581526020018273ffffffffffffffffffffffffffffffffffffffff16815260200183815250600460008373ffffffffffffffffffffffffffffffffffffffff1673ffffffffffffffffffffffffffffffffffffffff16815260200190815260200160002060008201518160000160006101000a81548160ff02191690831515021790555060208201518160000160016101000a81548173ffffffffffffffffffffffffffffffffffffffff021916908373ffffffffffffffffffffffffffffffffffffffff160217905550604082015181600101559050505050565b600060149054906101000a900460ff161515610fd7576040517f08c379a00000000000000000000000000000000000000000000000000000000081526004018080602001828103825260258152602001807f436f6e74726163742069732063757272656e746c79206e6f74206f706572617481526020017f696f6e616c00000000000000000000000000000000000000000000000000000081525060400191505060405180910390fd5b60001515600360008573ffffffffffffffffffffffffffffffffffffffff1673ffffffffffffffffffffffffffffffffffffffff16815260200190815260200160002060000160159054906101000a900460ff1615151415156110a2576040517f08c379a000000000000000000000000000000000000000000000000000000000815260040180806020018281038252601d8152602001807f4169726c696e6520697320616c7265616479207265676973746572656400000081525060200191505060405180910390fd5b8273ffffffffffffffffffffffffffffffffffffffff168173ffffffffffffffffffffffffffffffffffffffff1614151515611146576040517f08c379a000000000000000000000000000000000000000000000000000000000815260040180806020018281038252601f8152602001807f4169726c696e652063616e206e6f7420726567697374657220697473656c660081525060200191505060405180910390fd5b60011515600360008373ffffffffffffffffffffffffffffffffffffffff1673ffffffffffffffffffffffffffffffffffffffff16815260200190815260200160002060000160159054906101000a900460ff161515141515611237576040517f08c379a00000000000000000000000000000000000000000000000000000000081526004018080602001828103825260318152602001807f4f6e6c79206578697374696e67206169726c696e65206d61792072656769737481526020017f65722061206e6577206169726c696e652e00000000000000000000000000000081525060400191505060405180910390fd5b60011515600360008373ffffffffffffffffffffffffffffffffffffffff1673ffffffffffffffffffffffffffffffffffffffff16815260200190815260200160002060000160169054906101000a900460ff161515141515611328576040517f08c379a00000000000000000000000000000000000000000000000000000000081526004018080602001828103825260218152602001807f4169726c696e6520686173206e6f742070726f76696465642066756e64696e6781526020017f2e0000000000000000000000000000000000000000000000000000000000000081525060400191505060405180910390fd5b60a06040519081016040528083151581526020018473ffffffffffffffffffffffffffffffffffffffff1681526020016001151581526020016000151581526020016002600080815260200190815260200160002060000154815250600360008573ffffffffffffffffffffffffffffffffffffffff1673ffffffffffffffffffffffffffffffffffffffff16815260200190815260200160002060008201518160000160006101000a81548160ff02191690831515021790555060208201518160000160016101000a81548173ffffffffffffffffffffffffffffffffffffffff021916908373ffffffffffffffffffffffffffffffffffffffff16021790555060408201518160000160156101000a81548160ff02191690831515021790555060608201518160000160166101000a81548160ff02191690831515021790555060808201518160010155905050505050565b600060606040519081016040528060018152602001600060ff1681526020016000815250600260008081526020019081526020016000206000820151816000015560208201518160010160006101000a81548160ff021916908360ff160217905550604082015181600201559050506002600080815260200190815260200160002060000154905090565b80600460008473ffffffffffffffffffffffffffffffffffffffff1673ffffffffffffffffffffffffffffffffffffffff16815260200190815260200160002060010154101515156115c1576040517f08c379a00000000000000000000000000000000000000000000000000000000081526004018080602001828103825260148152602001807f4578636565647320616d6f756e74206c696d697400000000000000000000000081525060200191505060405180910390fd5b61161681600460008573ffffffffffffffffffffffffffffffffffffffff1673ffffffffffffffffffffffffffffffffffffffff1681526020019081526020016000206001015461170b90919063ffffffff16565b600460008473ffffffffffffffffffffffffffffffffffffffff1673ffffffffffffffffffffffffffffffffffffffff168152602001908152602001600020600101819055508173ffffffffffffffffffffffffffffffffffffffff166108fc829081150290604051600060405180830381858888f193505050501580156116a2573d6000803e3d6000fd5b505050565b60008060149054906101000a900460ff16905090565b600081838115156116ca57fe5b04905092915050565b6000808314156116e65760009050611705565b81830290508183828115156116f757fe5b0414151561170157fe5b8090505b92915050565b600082821115151561171957fe5b818303905092915050565b82805482825590600052602060002090810192821561179d579160200282015b8281111561179c5782518260006101000a81548173ffffffffffffffffffffffffffffffffffffffff021916908373ffffffffffffffffffffffffffffffffffffffff16021790555091602001919060010190611744565b5b5090506117aa91906117ae565b5090565b6117ee91905b808211156117ea57600081816101000a81549073ffffffffffffffffffffffffffffffffffffffff0219169055506001016117b4565b5090565b905600a165627a7a7230582059ccfccb07e7390681b148346fc1185554a33c735ee507ec11906521cd670d260029",
  "source": "pragma solidity ^0.4.24;\n\nimport \"../node_modules/openzeppelin-solidity/contracts/math/SafeMath.sol\";\n\ncontract FlightSuretyData {\n    using SafeMath for uint256;\n\n    /********************************************************************************************/\n    /*                                       DATA VARIABLES                                     */\n    /********************************************************************************************/\n\n    address private contractOwner; // Account used to deploy contract\n    bool private operational = true;                                    // Blocks all state changes throughout the contract if false\n\n    // Flight status codees\n    uint8 private constant STATUS_CODE_UNKNOWN = 0;\n    uint8 private constant STATUS_CODE_ON_TIME = 10;\n    uint8 private constant STATUS_CODE_LATE_AIRLINE = 20;\n    uint8 private constant STATUS_CODE_LATE_WEATHER = 30;\n    uint8 private constant STATUS_CODE_LATE_TECHNICAL = 40;\n    uint8 private constant STATUS_CODE_LATE_OTHER = 50;\n\n    uint256 constant WEI_PER_TOKEN = 1000000000;\n\n    address[] multiCalls = new address[](0);\n\n    struct Flight {\n        uint flightNo;\n        uint8 statusCode;\n        uint256 updatedTimestamp;\n    }\n\n    struct Airline {\n      bool isAdmin;\n      address airline;\n      bool isRegistered;\n      bool isFunded;\n      uint flight;\n    }\n\n    struct Passenger {\n        bool isPaidInsurance;\n        address passengerAddress;\n        uint payidAmount;\n    }\n\n    mapping(uint => Flight) private flights;\n    mapping(address => Airline) private airlines;\n    mapping(address => Passenger) private passengers;\n\n\n    /**\n    * @dev Constructor\n    *      The deploying account becomes contractOwner\n    */\n    constructor\n                                (\n                                )\n                                public\n    {\n        contractOwner = msg.sender;\n    }\n\n    /********************************************************************************************/\n    /*                                       FUNCTION MODIFIERS                                 */\n    /********************************************************************************************/\n\n    // Modifiers help avoid duplication of code. They are typically used to validate something\n    // before a function is allowed to be executed.\n\n    /**\n    * @dev Modifier that requires the \"operational\" boolean variable to be \"true\"\n    *      This is used on all state changing functions to pause the contract in\n    *      the event there is an issue that needs to be fixed\n    */\n    modifier requireIsOperational()\n    {\n        require(operational, \"Contract is currently not operational\");\n        _;  // All modifiers require an \"_\" which indicates where the function body will be added\n    }\n\n    /**\n\n    * @dev Modifier that requires the \"ContractOwner\" account to be the function caller\n    */\n    modifier requireContractOwner()\n    {\n        require(msg.sender == contractOwner, \"Caller is not contract owner\");\n        _;\n    }\n    /********************************************************************************************/\n    /*                                       UTILITY FUNCTIONS                                  */\n    /********************************************************************************************/\n\n    function isFunded(address airline)\n                        public\n                        returns(bool)\n    {\n      return airlines[airline].isFunded;\n    }\n    /**\n    * @dev Get operating status of contract\n    *\n    * @return A bool that is the current operating status\n    */\n    function isOperational()\n                            public\n                            view\n                            returns(bool)\n    {\n        return operational;\n    }\n\n\n    /**\n    * @dev Sets contract operations on/off\n    *\n    * When operational mode is disabled, all write transactions except for this one will fail\n    */\n    function setOperatingStatus\n                            (\n                                bool mode\n                            )\n                            external\n     {\n      require( airlines[msg.sender].isAdmin, \"Caller is not Admin\");\n      bool isDuplicate = false;\n      for(uint c=0; c<multiCalls.length; c++) {\n          if (multiCalls[c] == msg.sender) {\n              isDuplicate = true;\n              break;\n          }\n      }\n      require(!isDuplicate, \"Caller has already called this function.\");\n\n      multiCalls.push(msg.sender);\n      if (multiCalls.length >= 4) {\n          operational = mode;\n          multiCalls = new address[](0);\n     }\n    }\n\n    /********************************************************************************************/\n    /*                                     SMART CONTRACT FUNCTIONS                             */\n    /********************************************************************************************/\n\n    function registerFlight\n                                (\n                                )\n                                external\n                                returns (uint flightNo) \n\n    {\n     flights[0] =  Flight({\n        flightNo:1,\n        statusCode:STATUS_CODE_UNKNOWN,\n        updatedTimestamp:0\n        });\n        return flights[0].flightNo;\n    }\n    function registerFirstAirline(\n      address firstAirline\n    )\n    external\n    {\n        //register first airline\n        airlines[firstAirline] = Airline({\n                                                  isRegistered: true,\n                                                  airline:firstAirline,\n                                                  isFunded:false,\n                                                  isAdmin:true,\n                                                  flight:1\n                                              });\n    }\n   /**\n    * @dev Add an airline to the registration queue\n    *      Can only be called from FlightSuretyApp contract\n    *\n    */\n    function registerAirline\n                            (\n                              address airline,\n                              bool isAdmin,\n                              address metamask\n                            )\n                            requireIsOperational\n                            external\n    {\n      require(airlines[airline].isRegistered == false, \"Airline is already registered\");\n      require(metamask != airline, \"Airline can not register itself\");\n      require(airlines[metamask].isRegistered == true, \"Only existing airline may register a new airline.\");\n      require(airlines[metamask].isFunded == true, \"Airline has not provided funding.\");\n      airlines[airline] = Airline({\n                                                isRegistered:true,\n                                                airline:airline,\n                                                isFunded:false,\n                                                isAdmin:isAdmin,\n                                                flight:flights[0].flightNo\n                                            });\n    }\n\n\n   /**\n    * @dev Buy insurance for a flight\n    *\n    */\n    function buy\n                            (\n                              uint amount,\n                              address passenger\n                               )\n                            external\n                            payable\n    {\n      require(passengers[passenger].isPaidInsurance == false,  \"Passenger has paid insurance \");\n      require(amount >= WEI_PER_TOKEN, 'Not enough ether');\n      msg.value - amount;\n      address(contractOwner).transfer(amount);\n      passengers[passenger] = Passenger({\n                                          isPaidInsurance:true,\n                                          passengerAddress:passenger,\n                                          payidAmount:amount\n                                      });\n    }\n\n    /**\n     *  @dev Credits payouts to insurees\n    */\n    function creditInsurees\n                                (\n                                  address passenger\n                                )\n                                external\n    {\n      require(flights[0].statusCode != 0 && flights[0].statusCode != 10, \"The flight is not delayed\");\n      require(passengers[passenger].isPaidInsurance == true,  \"Passenger has not paid insurance \");\n      passengers[passenger].payidAmount.mul(uint(1).div(uint(5)));\n}\n\n\n    /**\n     *  @dev Transfers eligible payout funds to insuree\n     *\n    */\n    function pay\n                            (\n                              address passenger,\n                              uint amount\n                            )\n                            external\n                            payable\n    {\n      require(passengers[passenger].payidAmount >= amount, \"Exceeds amount limit\");\n      passengers[passenger].payidAmount = passengers[passenger].payidAmount.sub(uint(amount));\n      address(passenger).transfer(amount);\n    }\n\n   /**\n    * @dev Initial funding for the insurance. Unless there are too many delayed flights\n    *      resulting in insurance payouts, the contract should be self-sustaining\n    *\n    */\n    function fund\n                            (\n                              address _address\n                            )\n                            external\n                            payable\n    {\n        require(airlines[_address].isRegistered == true, \"Airline not Registered.\");\n        require(airlines[_address].isFunded == false, \"Airline has been funded.\");\n        uint256 returnAmount = msg.value - 10000000000000000000;\n        address(contractOwner).transfer(10000000000000000000);\n        _address.transfer(returnAmount);\n        airlines[_address].isFunded = true;\n    }\n\n    function getFlightKey\n                        (\n                            address airline,\n                            string memory flight,\n                            uint256 timestamp\n                        )\n                        pure\n                        internal\n                        returns(bytes32)\n    {\n        return keccak256(abi.encodePacked(airline, flight, timestamp));\n    }\n}\n",
  "sourcePath": "C:\\Users\\Maram\\Downloads\\test-master\\test-master\\FlightSurety\\contracts\\FlightSuretyData.sol",
  "compiler": {
    "name": "solc",
    "version": "0.4.24+commit.e67f0147.Emscripten.clang"
  },
  "schemaVersion": "2.0.1",
  "updatedAt": "2019-08-02T18:34:07.955Z"
}